{
  "contractName": "Elections",
  "abi": [
    {
      "inputs": [],
      "payable": false,
      "stateMutability": "nonpayable",
      "type": "constructor"
    },
    {
      "anonymous": false,
      "inputs": [
        {
          "indexed": false,
          "internalType": "uint256",
          "name": "id",
          "type": "uint256"
        },
        {
          "indexed": false,
          "internalType": "string",
          "name": "election_title",
          "type": "string"
        },
        {
          "indexed": false,
          "internalType": "string",
          "name": "description",
          "type": "string"
        },
        {
          "indexed": false,
          "internalType": "string",
          "name": "end_time",
          "type": "string"
        },
        {
          "indexed": false,
          "internalType": "uint256",
          "name": "candidate_count",
          "type": "uint256"
        }
      ],
      "name": "ElectionCreated",
      "type": "event"
    },
    {
      "constant": true,
      "inputs": [],
      "name": "election_count",
      "outputs": [
        {
          "internalType": "uint256",
          "name": "",
          "type": "uint256"
        }
      ],
      "payable": false,
      "stateMutability": "view",
      "type": "function"
    },
    {
      "constant": true,
      "inputs": [
        {
          "internalType": "uint256",
          "name": "",
          "type": "uint256"
        }
      ],
      "name": "elections",
      "outputs": [
        {
          "internalType": "uint256",
          "name": "id",
          "type": "uint256"
        },
        {
          "internalType": "string",
          "name": "title",
          "type": "string"
        },
        {
          "internalType": "string",
          "name": "description",
          "type": "string"
        },
        {
          "internalType": "string",
          "name": "end_time",
          "type": "string"
        },
        {
          "internalType": "uint256",
          "name": "candidate_count",
          "type": "uint256"
        }
      ],
      "payable": false,
      "stateMutability": "view",
      "type": "function"
    },
    {
      "constant": true,
      "inputs": [],
      "name": "name",
      "outputs": [
        {
          "internalType": "string",
          "name": "",
          "type": "string"
        }
      ],
      "payable": false,
      "stateMutability": "view",
      "type": "function"
    },
    {
      "constant": true,
      "inputs": [
        {
          "internalType": "string",
          "name": "source",
          "type": "string"
        }
      ],
      "name": "stringToBytes32",
      "outputs": [
        {
          "internalType": "bytes32",
          "name": "result",
          "type": "bytes32"
        }
      ],
      "payable": false,
      "stateMutability": "pure",
      "type": "function"
    },
    {
      "constant": false,
      "inputs": [
        {
          "internalType": "uint256",
          "name": "index",
          "type": "uint256"
        }
      ],
      "name": "getElection",
      "outputs": [
        {
          "internalType": "uint256",
          "name": "",
          "type": "uint256"
        },
        {
          "internalType": "string",
          "name": "",
          "type": "string"
        },
        {
          "internalType": "string",
          "name": "",
          "type": "string"
        },
        {
          "internalType": "string",
          "name": "",
          "type": "string"
        },
        {
          "internalType": "uint256",
          "name": "",
          "type": "uint256"
        }
      ],
      "payable": false,
      "stateMutability": "nonpayable",
      "type": "function"
    },
    {
      "constant": false,
      "inputs": [
        {
          "internalType": "uint256",
          "name": "indexE",
          "type": "uint256"
        },
        {
          "internalType": "uint256",
          "name": "indexC",
          "type": "uint256"
        }
      ],
      "name": "getCandidate",
      "outputs": [
        {
          "internalType": "uint256",
          "name": "",
          "type": "uint256"
        },
        {
          "internalType": "bytes32",
          "name": "",
          "type": "bytes32"
        },
        {
          "internalType": "uint256",
          "name": "",
          "type": "uint256"
        }
      ],
      "payable": false,
      "stateMutability": "nonpayable",
      "type": "function"
    },
    {
      "constant": false,
      "inputs": [
        {
          "internalType": "string",
          "name": "title",
          "type": "string"
        },
        {
          "internalType": "string",
          "name": "description",
          "type": "string"
        },
        {
          "internalType": "string",
          "name": "end_time",
          "type": "string"
        },
        {
          "internalType": "bytes32[]",
          "name": "candidates",
          "type": "bytes32[]"
        }
      ],
      "name": "create_election",
      "outputs": [],
      "payable": false,
      "stateMutability": "nonpayable",
      "type": "function"
    }
  ],
  "bytecode": "0x6080604052600080556040518060400160405280600981526020017f456c656374696f6e73000000000000000000000000000000000000000000000081525060019080519060200190620000559291906200064a565b506200009c6040518060400160405280600381526020017f6161610000000000000000000000000000000000000000000000000000000000815250620001e660201b60201c565b600455348015620000ac57600080fd5b5060036004549080600181540180825580915050906001820390600052602060002001600090919290919091505550620001e06040518060400160405280601081526020017f44656661756c7420456c656374696f6e000000000000000000000000000000008152506040518060400160405280601381526020017f64656661756c74206465736372697074696f6e000000000000000000000000008152506040518060400160405280600881526020017f32303230313233310000000000000000000000000000000000000000000000008152506003805480602002602001604051908101604052809291908181526020018280548015620001cf57602002820191906000526020600020905b815481526020019060010190808311620001ba575b50505050506200021360201b60201c565b620006f9565b6000606082905060008151141562000205576000801b9150506200020e565b60208301519150505b919050565b60008451116200022257600080fd5b600073ffffffffffffffffffffffffffffffffffffffff163373ffffffffffffffffffffffffffffffffffffffff1614156200025d57600080fd5b6000546002600080548152602001908152602001600020600001819055508360026000805481526020019081526020016000206001019080519060200190620002a89291906200064a565b508260026000805481526020019081526020016000206002019080519060200190620002d69291906200064a565b508160026000805481526020019081526020016000206003019080519060200190620003049291906200064a565b5060006002600080548152602001908152602001600020600501819055506000600260008054815260200190815260200160002060000154905060006002600080548152602001908152602001600020905060008090505b8351811015620003ee5760405180606001604052808281526020018583815181106200038457fe5b602002602001015181526020016000815250826004016000838152602001908152602001600020600082015181600001556020820151816001015560408201518160020155905050816005016000815480929190600101919050555080806001019150506200035c565b507fb13459a2ae7a704619c2ee3ff0a648e8f20d96b1e6bc52313fb936dd3c3674c082600260008054815260200190815260200160002060010160026000805481526020019081526020016000206002016002600080548152602001908152602001600020600301600260008054815260200190815260200160002060050154604051808681526020018060200180602001806020018581526020018481038452888181546001816001161561010002031660029004815260200191508054600181600116156101000203166002900480156200050f5780601f10620004e3576101008083540402835291602001916200050f565b820191906000526020600020905b815481529060010190602001808311620004f157829003601f168201915b5050848103835287818154600181600116156101000203166002900481526020019150805460018160011615610100020316600290048015620005965780601f106200056a5761010080835404028352916020019162000596565b820191906000526020600020905b8154815290600101906020018083116200057857829003601f168201915b50508481038252868181546001816001161561010002031660029004815260200191508054600181600116156101000203166002900480156200061d5780601f10620005f1576101008083540402835291602001916200061d565b820191906000526020600020905b815481529060010190602001808311620005ff57829003601f168201915b50509850505050505050505060405180910390a16000808154809291906001019190505550505050505050565b828054600181600116156101000203166002900490600052602060002090601f016020900481019282601f106200068d57805160ff1916838001178555620006be565b82800160010185558215620006be579182015b82811115620006bd578251825591602001919060010190620006a0565b5b509050620006cd9190620006d1565b5090565b620006f691905b80821115620006f2576000816000905550600101620006d8565b5090565b90565b61129d80620007096000396000f3fe608060405234801561001057600080fd5b506004361061007d5760003560e01c80635e6fef011161005b5780635e6fef011461017d5780639d7107771461030a578063bc3b0a4914610497578063cfb51928146107145761007d565b806306fdde03146100825780630732583c146101055780634bd4644814610123575b600080fd5b61008a6107e3565b6040518080602001828103825283818151815260200191508051906020019080838360005b838110156100ca5780820151818401526020810190506100af565b50505050905090810190601f1680156100f75780820380516001836020036101000a031916815260200191505b509250505060405180910390f35b61010d610881565b6040518082815260200191505060405180910390f35b6101596004803603604081101561013957600080fd5b810190808035906020019092919080359060200190929190505050610887565b60405180848152602001838152602001828152602001935050505060405180910390f35b6101a96004803603602081101561019357600080fd5b810190808035906020019092919050505061091a565b60405180868152602001806020018060200180602001858152602001848103845288818151815260200191508051906020019080838360005b838110156101fd5780820151818401526020810190506101e2565b50505050905090810190601f16801561022a5780820380516001836020036101000a031916815260200191505b50848103835287818151815260200191508051906020019080838360005b83811015610263578082015181840152602081019050610248565b50505050905090810190601f1680156102905780820380516001836020036101000a031916815260200191505b50848103825286818151815260200191508051906020019080838360005b838110156102c95780820151818401526020810190506102ae565b50505050905090810190601f1680156102f65780820380516001836020036101000a031916815260200191505b509850505050505050505060405180910390f35b6103366004803603602081101561032057600080fd5b8101908080359060200190929190505050610b18565b60405180868152602001806020018060200180602001858152602001848103845288818151815260200191508051906020019080838360005b8381101561038a57808201518184015260208101905061036f565b50505050905090810190601f1680156103b75780820380516001836020036101000a031916815260200191505b50848103835287818151815260200191508051906020019080838360005b838110156103f05780820151818401526020810190506103d5565b50505050905090810190601f16801561041d5780820380516001836020036101000a031916815260200191505b50848103825286818151815260200191508051906020019080838360005b8381101561045657808201518184015260208101905061043b565b50505050905090810190601f1680156104835780820380516001836020036101000a031916815260200191505b509850505050505050505060405180910390f35b610712600480360360808110156104ad57600080fd5b81019080803590602001906401000000008111156104ca57600080fd5b8201836020820111156104dc57600080fd5b803590602001918460018302840111640100000000831117156104fe57600080fd5b91908080601f016020809104026020016040519081016040528093929190818152602001838380828437600081840152601f19601f8201169050808301925050505050505091929192908035906020019064010000000081111561056157600080fd5b82018360208201111561057357600080fd5b8035906020019184600183028401116401000000008311171561059557600080fd5b91908080601f016020809104026020016040519081016040528093929190818152602001838380828437600081840152601f19601f820116905080830192505050505050509192919290803590602001906401000000008111156105f857600080fd5b82018360208201111561060a57600080fd5b8035906020019184600183028401116401000000008311171561062c57600080fd5b91908080601f016020809104026020016040519081016040528093929190818152602001838380828437600081840152601f19601f8201169050808301925050505050505091929192908035906020019064010000000081111561068f57600080fd5b8201836020820111156106a157600080fd5b803590602001918460208302840111640100000000831117156106c357600080fd5b919080806020026020016040519081016040528093929190818152602001838360200280828437600081840152601f19601f820116905080830192505050505050509192919290505050610d78565b005b6107cd6004803603602081101561072a57600080fd5b810190808035906020019064010000000081111561074757600080fd5b82018360208201111561075957600080fd5b8035906020019184600183028401116401000000008311171561077b57600080fd5b91908080601f016020809104026020016040519081016040528093929190818152602001838380828437600081840152601f19601f820116905080830192505050505050509192919290505050611198565b6040518082815260200191505060405180910390f35b60018054600181600116156101000203166002900480601f0160208091040260200160405190810160405280929190818152602001828054600181600116156101000203166002900480156108795780601f1061084e57610100808354040283529160200191610879565b820191906000526020600020905b81548152906001019060200180831161085c57829003601f168201915b505050505081565b60005481565b60008060006002600086815260200190815260200160002060040160008581526020019081526020016000206000015460026000878152602001908152602001600020600401600086815260200190815260200160002060010154600260008881526020019081526020016000206004016000878152602001908152602001600020600201549250925092509250925092565b6002602052806000526040600020600091509050806000015490806001018054600181600116156101000203166002900480601f0160208091040260200160405190810160405280929190818152602001828054600181600116156101000203166002900480156109cc5780601f106109a1576101008083540402835291602001916109cc565b820191906000526020600020905b8154815290600101906020018083116109af57829003601f168201915b505050505090806002018054600181600116156101000203166002900480601f016020809104026020016040519081016040528092919081815260200182805460018160011615610100020316600290048015610a6a5780601f10610a3f57610100808354040283529160200191610a6a565b820191906000526020600020905b815481529060010190602001808311610a4d57829003601f168201915b505050505090806003018054600181600116156101000203166002900480601f016020809104026020016040519081016040528092919081815260200182805460018160011615610100020316600290048015610b085780601f10610add57610100808354040283529160200191610b08565b820191906000526020600020905b815481529060010190602001808311610aeb57829003601f168201915b5050505050908060050154905085565b60006060806060600060026000878152602001908152602001600020600001546002600088815260200190815260200160002060010160026000898152602001908152602001600020600201600260008a8152602001908152602001600020600301600260008b815260200190815260200160002060050154838054600181600116156101000203166002900480601f016020809104026020016040519081016040528092919081815260200182805460018160011615610100020316600290048015610c265780601f10610bfb57610100808354040283529160200191610c26565b820191906000526020600020905b815481529060010190602001808311610c0957829003601f168201915b50505050509350828054600181600116156101000203166002900480601f016020809104026020016040519081016040528092919081815260200182805460018160011615610100020316600290048015610cc25780601f10610c9757610100808354040283529160200191610cc2565b820191906000526020600020905b815481529060010190602001808311610ca557829003601f168201915b50505050509250818054600181600116156101000203166002900480601f016020809104026020016040519081016040528092919081815260200182805460018160011615610100020316600290048015610d5e5780601f10610d3357610100808354040283529160200191610d5e565b820191906000526020600020905b815481529060010190602001808311610d4157829003601f168201915b505050505091509450945094509450945091939590929450565b6000845111610d8657600080fd5b600073ffffffffffffffffffffffffffffffffffffffff163373ffffffffffffffffffffffffffffffffffffffff161415610dc057600080fd5b6000546002600080548152602001908152602001600020600001819055508360026000805481526020019081526020016000206001019080519060200190610e099291906111c3565b508260026000805481526020019081526020016000206002019080519060200190610e359291906111c3565b508160026000805481526020019081526020016000206003019080519060200190610e619291906111c3565b5060006002600080548152602001908152602001600020600501819055506000600260008054815260200190815260200160002060000154905060006002600080548152602001908152602001600020905060008090505b8351811015610f48576040518060600160405280828152602001858381518110610edf57fe5b60200260200101518152602001600081525082600401600083815260200190815260200160002060008201518160000155602082015181600101556040820151816002015590505081600501600081548092919060010191905055508080600101915050610eb9565b507fb13459a2ae7a704619c2ee3ff0a648e8f20d96b1e6bc52313fb936dd3c3674c082600260008054815260200190815260200160002060010160026000805481526020019081526020016000206002016002600080548152602001908152602001600020600301600260008054815260200190815260200160002060050154604051808681526020018060200180602001806020018581526020018481038452888181546001816001161561010002031660029004815260200191508054600181600116156101000203166002900480156110655780601f1061103a57610100808354040283529160200191611065565b820191906000526020600020905b81548152906001019060200180831161104857829003601f168201915b50508481038352878181546001816001161561010002031660029004815260200191508054600181600116156101000203166002900480156110e85780601f106110bd576101008083540402835291602001916110e8565b820191906000526020600020905b8154815290600101906020018083116110cb57829003601f168201915b505084810382528681815460018160011615610100020316600290048152602001915080546001816001161561010002031660029004801561116b5780601f106111405761010080835404028352916020019161116b565b820191906000526020600020905b81548152906001019060200180831161114e57829003601f168201915b50509850505050505050505060405180910390a16000808154809291906001019190505550505050505050565b600060608290506000815114156111b5576000801b9150506111be565b60208301519150505b919050565b828054600181600116156101000203166002900490600052602060002090601f016020900481019282601f1061120457805160ff1916838001178555611232565b82800160010185558215611232579182015b82811115611231578251825591602001919060010190611216565b5b50905061123f9190611243565b5090565b61126591905b80821115611261576000816000905550600101611249565b5090565b9056fea265627a7a723158203371b839afd67703c438b775aa24725fe559cf8da0cc5f77cd8360cf1414eaf364736f6c63430005100032",
  "source": "pragma solidity 0.5.16;\n\ncontract Elections {\n\n    uint public election_count = 0;\n    string public name = \"Elections\";\n    mapping(uint => Election) public elections;\n    bytes32[] defaultArray;\n    bytes32 test = stringToBytes32(\"aaa\");\n    \n\n    struct Election {\n        uint id;\n        string title;\n        string description;\n        string end_time;\n        mapping(uint => Candidate) candidates;\n        uint candidate_count;\n         // Store accounts that have voted\n        mapping(address => bool) voters;\n    }\n\n    // Model a Candidate\n    struct Candidate {\n        uint id;\n        bytes32 name;\n        uint vote_count;\n    } \n\n    constructor () public {\n        defaultArray.push(test);\n        create_election(\"Default Election\", \"default description\", \n        \"20201231\", defaultArray);\n    }\n\n    function stringToBytes32(string memory source) public pure returns (bytes32 result) {\n        bytes memory tempEmptyStringTest = bytes(source);\n        if (tempEmptyStringTest.length == 0) {\n            return 0x0;\n        }\n\n        assembly {\n            result := mload(add(source, 32))\n        }\n    }\n\n    function getElection(uint index) public returns (uint, string memory, string memory, string memory, uint) {\n        return (elections[index].id, elections[index].title, elections[index].description, elections[index].end_time, elections[index].candidate_count);\n    }\n\n    function getCandidate(uint indexE, uint indexC) public returns (uint, bytes32, uint) {\n        return (elections[indexE].candidates[indexC].id, elections[indexE].candidates[indexC].name, elections[indexE].candidates[indexC].vote_count);\n    }\n\n    event ElectionCreated (\n        uint id,\n        string election_title,\n        string description,\n        string end_time,\n        uint candidate_count\n    );\n\n    function create_election(string memory title, string memory description, \n        string memory end_time, bytes32[] memory candidates) public {\n            // Make sure election title exists\n            require(bytes(title).length > 0);\n            // Make sure creater address exists\n            require(msg.sender!=address(0));\n\n            // Add election to the contract\n            elections[election_count].id = election_count;\n            elections[election_count].title = title;\n            elections[election_count].description = description;\n            elections[election_count].end_time = end_time;\n            elections[election_count].candidate_count = 0;\n\n            uint _id = elections[election_count].id;\n\n            Election storage election = elections[election_count];\n\n            for (uint i=0; i<candidates.length; i++){\n                election.candidates[i] = Candidate(i, candidates[i], 0);\n                election.candidate_count++;\n            }\n\n            // Trigger an event\n            emit ElectionCreated(_id, elections[election_count].title, \n                elections[election_count].description, elections[election_count].end_time,\n                elections[election_count].candidate_count);\n\n            // Increment election id\n            election_count ++;\n\n    }\n\n    // // voted event\n    // event VotedEvent (\n    //     uint indexed _candidateId\n    // );\n\n\n    // function vote (uint _candidateId) public {\n    //     // require that they haven't voted before\n    //     require(!voters[msg.sender]);\n\n    //     // require a valid candidate\n    //     require(_candidateId > 0 && _candidateId <= candidatesCount);\n\n    //     // record that voter has voted\n    //     voters[msg.sender] = true;\n\n    //     // update candidate vote Count\n    //     candidates[_candidateId].voteCount ++;\n\n    //     // trigger voted event\n    //     emit VotedEvent(_candidateId);\n    // }\n\n}",
  "sourcePath": "/Users/wangran/Desktop/GradLife/2020fall/APS1050/team project/election/Election/src/contracts/Elections.sol",
  "compiler": {
    "name": "solc",
    "version": "0.5.16+commit.9c3226ce.Emscripten.clang"
  },
  "schemaVersion": "3.3.2",
  "updatedAt": "2020-12-28T01:03:59.573Z",
  "networkType": "ethereum",
  "devdoc": {
    "methods": {}
  },
  "userdoc": {
    "methods": {}
  }
}