{
  "contractName": "Elections",
  "abi": [
    {
      "inputs": [],
      "payable": false,
      "stateMutability": "nonpayable",
      "type": "constructor"
    },
    {
      "constant": true,
      "inputs": [],
      "name": "electionsCount",
      "outputs": [
        {
          "internalType": "uint256",
          "name": "",
          "type": "uint256"
        }
      ],
      "payable": false,
      "stateMutability": "view",
      "type": "function"
    },
    {
      "constant": false,
      "inputs": [],
      "name": "getElection",
      "outputs": [
        {
          "internalType": "uint256",
          "name": "",
          "type": "uint256"
        },
        {
          "internalType": "string",
          "name": "",
          "type": "string"
        }
      ],
      "payable": false,
      "stateMutability": "nonpayable",
      "type": "function"
    }
  ],
  "bytecode": "0x608060405234801561001057600080fd5b506100556040518060400160405280600181526020017f610000000000000000000000000000000000000000000000000000000000000081525061009e60201b60201c565b6100996040518060400160405280600181526020017f620000000000000000000000000000000000000000000000000000000000000081525061009e60201b60201c565b6101ad565b60016000815480929190600101919050555060405180604001604052806001548152602001828152506000806001548152602001908152602001600020600082015181600001556020820151816001019080519060200190610101929190610108565b5090505050565b828054600181600116156101000203166002900490600052602060002090601f016020900481019282601f1061014957805160ff1916838001178555610177565b82800160010185558215610177579182015b8281111561017657825182559160200191906001019061015b565b5b5090506101849190610188565b5090565b6101aa91905b808211156101a657600081600090555060010161018e565b5090565b90565b6101f1806101bc6000396000f3fe608060405234801561001057600080fd5b50600436106100365760003560e01c80639a74c6951461003b578063eceed33914610059575b600080fd5b6100436100e3565b6040518082815260200191505060405180910390f35b6100616100e9565b6040518083815260200180602001828103825283818151815260200191508051906020019080838360005b838110156100a757808201518184015260208101905061008c565b50505050905090810190601f1680156100d45780820380516001836020036101000a031916815260200191505b50935050505060405180910390f35b60015481565b6000606060008080815260200190815260200160002060000154600080808152602001908152602001600020600101808054600181600116156101000203166002900480601f0160208091040260200160405190810160405280929190818152602001828054600181600116156101000203166002900480156101ad5780601f10610182576101008083540402835291602001916101ad565b820191906000526020600020905b81548152906001019060200180831161019057829003601f168201915b5050505050905091509150909156fea265627a7a7231582078a42b05b059a6b6b1e9a9a2008f5f9f08cef3d887d38429fe941f0a775262cd64736f6c63430005100032",
  "source": "pragma solidity 0.5.16;\r\n\r\ncontract Elections {\r\n    struct Election{\r\n        uint id;\r\n        string name;\r\n    }\r\n\r\n    mapping(uint => Election) electionList;\r\n\r\n    uint public electionsCount;\r\n\r\n    constructor () public {\r\n        addElection(\"a\");\r\n        addElection(\"b\");\r\n    }\r\n\r\n    function getElection() public returns (uint , string memory) {\r\n        return (electionList[0].id, electionList[0].name);\r\n    }\r\n\r\n\r\n    function addElection(string memory _name) private {\r\n        electionsCount ++;\r\n        electionList[electionsCount] = Election(electionsCount, _name);\r\n    }\r\n}",
  "sourcePath": "C:/Users/Jacky/Desktop/Election/src/contracts/Elections.sol",
  "compiler": {
    "name": "solc",
    "version": "0.5.16+commit.9c3226ce.Emscripten.clang"
  },
  "schemaVersion": "3.0.22",
  "updatedAt": "2020-12-28T01:42:28.180Z",
  "networkType": "ethereum",
  "devdoc": {
    "methods": {}
  },
  "userdoc": {
    "methods": {}
  }
}