{
  "contractName": "Elections",
  "abi": [
    {
      "inputs": [],
      "payable": false,
      "stateMutability": "nonpayable",
      "type": "constructor"
    },
    {
      "anonymous": false,
      "inputs": [
        {
          "indexed": false,
          "internalType": "uint256",
          "name": "id",
          "type": "uint256"
        },
        {
          "indexed": false,
          "internalType": "string",
          "name": "election_title",
          "type": "string"
        },
        {
          "indexed": false,
          "internalType": "string",
          "name": "description",
          "type": "string"
        },
        {
          "indexed": false,
          "internalType": "string",
          "name": "end_time",
          "type": "string"
        },
        {
          "indexed": false,
          "internalType": "uint256",
          "name": "candidate_count",
          "type": "uint256"
        }
      ],
      "name": "ElectionCreated",
      "type": "event"
    },
    {
      "constant": true,
      "inputs": [],
      "name": "election_count",
      "outputs": [
        {
          "internalType": "uint256",
          "name": "",
          "type": "uint256"
        }
      ],
      "payable": false,
      "stateMutability": "view",
      "type": "function"
    },
    {
      "constant": true,
      "inputs": [
        {
          "internalType": "uint256",
          "name": "",
          "type": "uint256"
        }
      ],
      "name": "elections",
      "outputs": [
        {
          "internalType": "uint256",
          "name": "id",
          "type": "uint256"
        },
        {
          "internalType": "string",
          "name": "title",
          "type": "string"
        },
        {
          "internalType": "string",
          "name": "description",
          "type": "string"
        },
        {
          "internalType": "string",
          "name": "end_time",
          "type": "string"
        },
        {
          "internalType": "uint256",
          "name": "candidate_count",
          "type": "uint256"
        }
      ],
      "payable": false,
      "stateMutability": "view",
      "type": "function"
    },
    {
      "constant": true,
      "inputs": [],
      "name": "name",
      "outputs": [
        {
          "internalType": "string",
          "name": "",
          "type": "string"
        }
      ],
      "payable": false,
      "stateMutability": "view",
      "type": "function"
    },
    {
      "constant": true,
      "inputs": [
        {
          "internalType": "string",
          "name": "source",
          "type": "string"
        }
      ],
      "name": "stringToBytes32",
      "outputs": [
        {
          "internalType": "bytes32",
          "name": "result",
          "type": "bytes32"
        }
      ],
      "payable": false,
      "stateMutability": "pure",
      "type": "function"
    },
    {
      "constant": false,
      "inputs": [
        {
          "internalType": "uint256",
          "name": "index",
          "type": "uint256"
        }
      ],
      "name": "getElection",
      "outputs": [
        {
          "internalType": "uint256",
          "name": "",
          "type": "uint256"
        },
        {
          "internalType": "string",
          "name": "",
          "type": "string"
        },
        {
          "internalType": "string",
          "name": "",
          "type": "string"
        },
        {
          "internalType": "string",
          "name": "",
          "type": "string"
        },
        {
          "internalType": "uint256",
          "name": "",
          "type": "uint256"
        }
      ],
      "payable": false,
      "stateMutability": "nonpayable",
      "type": "function"
    },
    {
      "constant": false,
      "inputs": [
        {
          "internalType": "uint256",
          "name": "indexE",
          "type": "uint256"
        },
        {
          "internalType": "uint256",
          "name": "indexC",
          "type": "uint256"
        }
      ],
      "name": "getCandidate",
      "outputs": [
        {
          "internalType": "uint256",
          "name": "",
          "type": "uint256"
        },
        {
          "internalType": "string",
          "name": "",
          "type": "string"
        },
        {
          "internalType": "uint256",
          "name": "",
          "type": "uint256"
        }
      ],
      "payable": false,
      "stateMutability": "nonpayable",
      "type": "function"
    },
    {
      "constant": false,
      "inputs": [
        {
          "internalType": "string",
          "name": "title",
          "type": "string"
        },
        {
          "internalType": "string",
          "name": "description",
          "type": "string"
        },
        {
          "internalType": "string",
          "name": "end_time",
          "type": "string"
        },
        {
          "internalType": "string[]",
          "name": "candidates",
          "type": "string[]"
        }
      ],
      "name": "create_election",
      "outputs": [],
      "payable": false,
      "stateMutability": "nonpayable",
      "type": "function"
    }
  ],
  "bytecode": "0x6080604052600080556040518060400160405280600981526020017f456c656374696f6e730000000000000000000000000000000000000000000000815250600190805190602001906200005592919062000544565b506040518060400160405280600381526020017f616161000000000000000000000000000000000000000000000000000000000081525060049080519060200190620000a392919062000544565b50348015620000b157600080fd5b50600360049080600181540180825580915050906001820390600052602060002001600090919290919091509080546001816001161561010002031660029004620000fe929190620005cb565b50506200029a6040518060400160405280601081526020017f44656661756c7420456c656374696f6e000000000000000000000000000000008152506040518060400160405280601381526020017f64656661756c74206465736372697074696f6e000000000000000000000000008152506040518060400160405280600881526020017f32303230313233310000000000000000000000000000000000000000000000008152506003805480602002602001604051908101604052809291908181526020016000905b828210156200028a578382906000526020600020018054600181600116156101000203166002900480601f016020809104026020016040519081016040528092919081815260200182805460018160011615610100020316600290048015620002755780601f10620002495761010080835404028352916020019162000275565b820191906000526020600020905b8154815290600101906020018083116200025757829003601f168201915b505050505081526020019060010190620001c8565b50505050620002a060201b60201c565b62000856565b6000845111620002af57600080fd5b600073ffffffffffffffffffffffffffffffffffffffff163373ffffffffffffffffffffffffffffffffffffffff161415620002ea57600080fd5b60005460026000805481526020019081526020016000206000018190555083600260008054815260200190815260200160002060010190805190602001906200033592919062000544565b5082600260008054815260200190815260200160002060020190805190602001906200036392919062000544565b5081600260008054815260200190815260200160002060030190805190602001906200039192919062000544565b5060006002600080548152602001908152602001600020600501819055506000600260008054815260200190815260200160002060000154905060006002600080548152602001908152602001600020905060008090505b8351811015620004905760405180606001604052808281526020018583815181106200041157fe5b6020026020010151815260200160008152508260040160008381526020019081526020016000206000820151816000015560208201518160010190805190602001906200046092919062000659565b506040820151816002015590505081600501600081548092919060010191905055508080600101915050620003e9565b507fb13459a2ae7a704619c2ee3ff0a648e8f20d96b1e6bc52313fb936dd3c3674c08260026000805481526020019081526020016000206001016002600080548152602001908152602001600020600201600260008054815260200190815260200160002060030160026000805481526020019081526020016000206005015460405162000523959493929190620007b4565b60405180910390a16000808154809291906001019190505550505050505050565b828054600181600116156101000203166002900490600052602060002090601f016020900481019282601f106200058757805160ff1916838001178555620005b8565b82800160010185558215620005b8579182015b82811115620005b75782518255916020019190600101906200059a565b5b509050620005c79190620006e0565b5090565b828054600181600116156101000203166002900490600052602060002090601f016020900481019282601f1062000606578054855562000646565b828001600101855582156200064657600052602060002091601f016020900482015b828111156200064557825482559160010191906001019062000628565b5b509050620006559190620006e0565b5090565b828054600181600116156101000203166002900490600052602060002090601f016020900481019282601f106200069c57805160ff1916838001178555620006cd565b82800160010185558215620006cd579182015b82811115620006cc578251825591602001919060010190620006af565b5b509050620006dc9190620006e0565b5090565b6200070591905b8082111562000701576000816000905550600101620006e7565b5090565b90565b60008154600181166000811462000728576001811462000751576200079b565b607f60028304166200073b81876200083b565b955060ff1983168652602086019350506200079b565b600282046200076181876200083b565b95506200076e8562000826565b60005b82811015620007925781548189015260018201915060208101905062000771565b80880195505050505b505092915050565b620007ae816200084c565b82525050565b600060a082019050620007cb6000830188620007a3565b8181036020830152620007df818762000708565b90508181036040830152620007f5818662000708565b905081810360608301526200080b818562000708565b90506200081c6080830184620007a3565b9695505050505050565b60008190508160005260206000209050919050565b600082825260208201905092915050565b6000819050919050565b6112eb80620008666000396000f3fe608060405234801561001057600080fd5b506004361061007d5760003560e01c80634bd464481161005b5780634bd46448146100da5780635e6fef011461010c5780639d71077714610140578063cfb51928146101745761007d565b806306fdde03146100825780630732583c146100a05780633566bc6b146100be575b600080fd5b61008a6101a4565b6040516100979190610f8e565b60405180910390f35b6100a8610242565b6040516100b59190610fb0565b60405180910390f35b6100d860048036036100d39190810190610d2c565b610248565b005b6100f460048036036100ef9190810190610e18565b6104dd565b60405161010393929190611033565b60405180910390f35b61012660048036036101219190810190610def565b61060c565b604051610137959493929190611071565b60405180910390f35b61015a60048036036101559190810190610def565b61080a565b60405161016b959493929190610fcb565b60405180910390f35b61018e60048036036101899190810190610ceb565b610a6a565b60405161019b9190610f73565b60405180910390f35b60018054600181600116156101000203166002900480601f01602080910402602001604051908101604052809291908181526020018280546001816001161561010002031660029004801561023a5780601f1061020f5761010080835404028352916020019161023a565b820191906000526020600020905b81548152906001019060200180831161021d57829003601f168201915b505050505081565b60005481565b600084511161025657600080fd5b600073ffffffffffffffffffffffffffffffffffffffff163373ffffffffffffffffffffffffffffffffffffffff16141561029057600080fd5b60005460026000805481526020019081526020016000206000018190555083600260008054815260200190815260200160002060010190805190602001906102d9929190610a95565b508260026000805481526020019081526020016000206002019080519060200190610305929190610a95565b508160026000805481526020019081526020016000206003019080519060200190610331929190610a95565b5060006002600080548152602001908152602001600020600501819055506000600260008054815260200190815260200160002060000154905060006002600080548152602001908152602001600020905060008090505b835181101561042b5760405180606001604052808281526020018583815181106103af57fe5b6020026020010151815260200160008152508260040160008381526020019081526020016000206000820151816000015560208201518160010190805190602001906103fc929190610b15565b506040820151816002015590505081600501600081548092919060010191905055508080600101915050610389565b507fb13459a2ae7a704619c2ee3ff0a648e8f20d96b1e6bc52313fb936dd3c3674c0826002600080548152602001908152602001600020600101600260008054815260200190815260200160002060020160026000805481526020019081526020016000206003016002600080548152602001908152602001600020600501546040516104bc9594939291906110d9565b60405180910390a16000808154809291906001019190505550505050505050565b6000606060006002600086815260200190815260200160002060040160008581526020019081526020016000206000015460026000878152602001908152602001600020600401600086815260200190815260200160002060010160026000888152602001908152602001600020600401600087815260200190815260200160002060020154818054600181600116156101000203166002900480601f0160208091040260200160405190810160405280929190818152602001828054600181600116156101000203166002900480156105f85780601f106105cd576101008083540402835291602001916105f8565b820191906000526020600020905b8154815290600101906020018083116105db57829003601f168201915b505050505091509250925092509250925092565b6002602052806000526040600020600091509050806000015490806001018054600181600116156101000203166002900480601f0160208091040260200160405190810160405280929190818152602001828054600181600116156101000203166002900480156106be5780601f10610693576101008083540402835291602001916106be565b820191906000526020600020905b8154815290600101906020018083116106a157829003601f168201915b505050505090806002018054600181600116156101000203166002900480601f01602080910402602001604051908101604052809291908181526020018280546001816001161561010002031660029004801561075c5780601f106107315761010080835404028352916020019161075c565b820191906000526020600020905b81548152906001019060200180831161073f57829003601f168201915b505050505090806003018054600181600116156101000203166002900480601f0160208091040260200160405190810160405280929190818152602001828054600181600116156101000203166002900480156107fa5780601f106107cf576101008083540402835291602001916107fa565b820191906000526020600020905b8154815290600101906020018083116107dd57829003601f168201915b5050505050908060050154905085565b60006060806060600060026000878152602001908152602001600020600001546002600088815260200190815260200160002060010160026000898152602001908152602001600020600201600260008a8152602001908152602001600020600301600260008b815260200190815260200160002060050154838054600181600116156101000203166002900480601f0160208091040260200160405190810160405280929190818152602001828054600181600116156101000203166002900480156109185780601f106108ed57610100808354040283529160200191610918565b820191906000526020600020905b8154815290600101906020018083116108fb57829003601f168201915b50505050509350828054600181600116156101000203166002900480601f0160208091040260200160405190810160405280929190818152602001828054600181600116156101000203166002900480156109b45780601f10610989576101008083540402835291602001916109b4565b820191906000526020600020905b81548152906001019060200180831161099757829003601f168201915b50505050509250818054600181600116156101000203166002900480601f016020809104026020016040519081016040528092919081815260200182805460018160011615610100020316600290048015610a505780601f10610a2557610100808354040283529160200191610a50565b820191906000526020600020905b815481529060010190602001808311610a3357829003601f168201915b505050505091509450945094509450945091939590929450565b60006060829050600081511415610a87576000801b915050610a90565b60208301519150505b919050565b828054600181600116156101000203166002900490600052602060002090601f016020900481019282601f10610ad657805160ff1916838001178555610b04565b82800160010185558215610b04579182015b82811115610b03578251825591602001919060010190610ae8565b5b509050610b119190610b95565b5090565b828054600181600116156101000203166002900490600052602060002090601f016020900481019282601f10610b5657805160ff1916838001178555610b84565b82800160010185558215610b84579182015b82811115610b83578251825591602001919060010190610b68565b5b509050610b919190610b95565b5090565b610bb791905b80821115610bb3576000816000905550600101610b9b565b5090565b90565b600082601f830112610bcb57600080fd5b8135610bde610bd98261116e565b611141565b9150818183526020840193506020810190508360005b83811015610c245781358601610c0a8882610c2e565b845260208401935060208301925050600181019050610bf4565b5050505092915050565b600082601f830112610c3f57600080fd5b8135610c52610c4d82611196565b611141565b91508082526020830160208301858383011115610c6e57600080fd5b610c7983828461123e565b50505092915050565b600082601f830112610c9357600080fd5b8135610ca6610ca1826111c2565b611141565b91508082526020830160208301858383011115610cc257600080fd5b610ccd83828461123e565b50505092915050565b600081359050610ce581611291565b92915050565b600060208284031215610cfd57600080fd5b600082013567ffffffffffffffff811115610d1757600080fd5b610d2384828501610c82565b91505092915050565b60008060008060808587031215610d4257600080fd5b600085013567ffffffffffffffff811115610d5c57600080fd5b610d6887828801610c82565b945050602085013567ffffffffffffffff811115610d8557600080fd5b610d9187828801610c82565b935050604085013567ffffffffffffffff811115610dae57600080fd5b610dba87828801610c82565b925050606085013567ffffffffffffffff811115610dd757600080fd5b610de387828801610bba565b91505092959194509250565b600060208284031215610e0157600080fd5b6000610e0f84828501610cd6565b91505092915050565b60008060408385031215610e2b57600080fd5b6000610e3985828601610cd6565b9250506020610e4a85828601610cd6565b9150509250929050565b610e5d8161122a565b82525050565b6000610e6e8261120e565b610e788185611219565b9350610e8881856020860161124d565b610e9181611280565b840191505092915050565b6000610ea782611203565b610eb18185611219565b9350610ec181856020860161124d565b610eca81611280565b840191505092915050565b600081546001811660008114610ef25760018114610f1857610f5c565b607f6002830416610f038187611219565b955060ff198316865260208601935050610f5c565b60028204610f268187611219565b9550610f31856111ee565b60005b82811015610f5357815481890152600182019150602081019050610f34565b80880195505050505b505092915050565b610f6d81611234565b82525050565b6000602082019050610f886000830184610e54565b92915050565b60006020820190508181036000830152610fa88184610e9c565b905092915050565b6000602082019050610fc56000830184610f64565b92915050565b600060a082019050610fe06000830188610f64565b8181036020830152610ff28187610e63565b905081810360408301526110068186610e63565b9050818103606083015261101a8185610e63565b90506110296080830184610f64565b9695505050505050565b60006060820190506110486000830186610f64565b818103602083015261105a8185610e63565b90506110696040830184610f64565b949350505050565b600060a0820190506110866000830188610f64565b81810360208301526110988187610e9c565b905081810360408301526110ac8186610e9c565b905081810360608301526110c08185610e9c565b90506110cf6080830184610f64565b9695505050505050565b600060a0820190506110ee6000830188610f64565b81810360208301526111008187610ed5565b905081810360408301526111148186610ed5565b905081810360608301526111288185610ed5565b90506111376080830184610f64565b9695505050505050565b6000604051905081810181811067ffffffffffffffff8211171561116457600080fd5b8060405250919050565b600067ffffffffffffffff82111561118557600080fd5b602082029050602081019050919050565b600067ffffffffffffffff8211156111ad57600080fd5b601f19601f8301169050602081019050919050565b600067ffffffffffffffff8211156111d957600080fd5b601f19601f8301169050602081019050919050565b60008190508160005260206000209050919050565b600081519050919050565b600081519050919050565b600082825260208201905092915050565b6000819050919050565b6000819050919050565b82818337600083830152505050565b60005b8381101561126b578082015181840152602081019050611250565b8381111561127a576000848401525b50505050565b6000601f19601f8301169050919050565b61129a81611234565b81146112a557600080fd5b5056fea365627a7a723158209be37cc62c3d4f6353230b243bfd9aa0a50105e66bf44a31e9e5b7a1348b8b4b6c6578706572696d656e74616cf564736f6c63430005100040",
  "source": "pragma experimental ABIEncoderV2;\r\n\r\ncontract Elections {\r\n\r\n    uint public election_count = 0;\r\n    string public name = \"Elections\";\r\n    mapping(uint => Election) public elections;\r\n    string[] defaultArray;\r\n    string test = \"aaa\";\r\n    \r\n\r\n    struct Election {\r\n        uint id;\r\n        string title;\r\n        string description;\r\n        string end_time;\r\n        mapping(uint => Candidate) candidates;\r\n        uint candidate_count;\r\n         // Store accounts that have voted\r\n        mapping(address => bool) voters;\r\n    }\r\n\r\n    // Model a Candidate\r\n    struct Candidate {\r\n        uint id;\r\n        string name;\r\n        uint vote_count;\r\n    } \r\n\r\n    constructor () public {\r\n        defaultArray.push(test);\r\n        create_election(\"Default Election\", \"default description\", \r\n        \"20201231\", defaultArray);\r\n    }\r\n\r\n    function stringToBytes32(string memory source) public pure returns (bytes32 result) {\r\n        bytes memory tempEmptyStringTest = bytes(source);\r\n        if (tempEmptyStringTest.length == 0) {\r\n            return 0x0;\r\n        }\r\n\r\n        assembly {\r\n            result := mload(add(source, 32))\r\n        }\r\n    }\r\n\r\n    function getElection(uint index) public returns (uint, string memory, string memory, string memory, uint) {\r\n        return (elections[index].id, elections[index].title, elections[index].description, elections[index].end_time, elections[index].candidate_count);\r\n    }\r\n\r\n    function getCandidate(uint indexE, uint indexC) public returns (uint, string memory, uint) {\r\n        return (elections[indexE].candidates[indexC].id, elections[indexE].candidates[indexC].name, elections[indexE].candidates[indexC].vote_count);\r\n    }\r\n\r\n    event ElectionCreated (\r\n        uint id,\r\n        string election_title,\r\n        string description,\r\n        string end_time,\r\n        uint candidate_count\r\n    );\r\n\r\n    function create_election(string memory title, string memory description, \r\n        string memory end_time, string[] memory candidates) public {\r\n            // Make sure election title exists\r\n            require(bytes(title).length > 0);\r\n            // Make sure creater address exists\r\n            require(msg.sender!=address(0));\r\n\r\n            // Add election to the contract\r\n            elections[election_count].id = election_count;\r\n            elections[election_count].title = title;\r\n            elections[election_count].description = description;\r\n            elections[election_count].end_time = end_time;\r\n            elections[election_count].candidate_count = 0;\r\n\r\n            uint _id = elections[election_count].id;\r\n\r\n            Election storage election = elections[election_count];\r\n\r\n            for (uint i=0; i<candidates.length; i++){\r\n                election.candidates[i] = Candidate(i, candidates[i], 0);\r\n                election.candidate_count++;\r\n            }\r\n\r\n            // Trigger an event\r\n            emit ElectionCreated(_id, elections[election_count].title, \r\n                elections[election_count].description, elections[election_count].end_time,\r\n                elections[election_count].candidate_count);\r\n\r\n            // Increment election id\r\n            election_count ++;\r\n\r\n    }\r\n\r\n    // // voted event\r\n    // event VotedEvent (\r\n    //     uint indexed _candidateId\r\n    // );\r\n\r\n\r\n    // function vote (uint _candidateId) public {\r\n    //     // require that they haven't voted before\r\n    //     require(!voters[msg.sender]);\r\n\r\n    //     // require a valid candidate\r\n    //     require(_candidateId > 0 && _candidateId <= candidatesCount);\r\n\r\n    //     // record that voter has voted\r\n    //     voters[msg.sender] = true;\r\n\r\n    //     // update candidate vote Count\r\n    //     candidates[_candidateId].voteCount ++;\r\n\r\n    //     // trigger voted event\r\n    //     emit VotedEvent(_candidateId);\r\n    // }\r\n\r\n}",
  "sourcePath": "C:/Users/Jacky/Desktop/election/src/contracts/Elections.sol",
  "compiler": {
    "name": "solc",
    "version": "0.5.16+commit.9c3226ce.Emscripten.clang"
  },
  "schemaVersion": "3.3.3",
  "updatedAt": "2020-12-28T06:08:50.788Z",
  "networkType": "ethereum",
  "devdoc": {
    "methods": {}
  },
  "userdoc": {
    "methods": {}
  }
}