{
  "contractName": "Elections",
  "abi": [
    {
      "inputs": [],
      "payable": false,
      "stateMutability": "nonpayable",
      "type": "constructor"
    },
    {
      "anonymous": false,
      "inputs": [
        {
          "indexed": false,
          "internalType": "uint256",
          "name": "id",
          "type": "uint256"
        },
        {
          "indexed": false,
          "internalType": "string",
          "name": "election_title",
          "type": "string"
        },
        {
          "indexed": false,
          "internalType": "string",
          "name": "description",
          "type": "string"
        },
        {
          "indexed": false,
          "internalType": "string",
          "name": "end_time",
          "type": "string"
        },
        {
          "indexed": false,
          "internalType": "uint256",
          "name": "candidate_count",
          "type": "uint256"
        }
      ],
      "name": "ElectionCreated",
      "type": "event"
    },
    {
      "anonymous": false,
      "inputs": [
        {
          "indexed": false,
          "internalType": "uint256",
          "name": "electionId",
          "type": "uint256"
        },
        {
          "indexed": false,
          "internalType": "uint256",
          "name": "candidateId",
          "type": "uint256"
        }
      ],
      "name": "VotedEvent",
      "type": "event"
    },
    {
      "constant": true,
      "inputs": [],
      "name": "election_count",
      "outputs": [
        {
          "internalType": "uint256",
          "name": "",
          "type": "uint256"
        }
      ],
      "payable": false,
      "stateMutability": "view",
      "type": "function"
    },
    {
      "constant": true,
      "inputs": [
        {
          "internalType": "uint256",
          "name": "",
          "type": "uint256"
        }
      ],
      "name": "elections",
      "outputs": [
        {
          "internalType": "uint256",
          "name": "id",
          "type": "uint256"
        },
        {
          "internalType": "string",
          "name": "title",
          "type": "string"
        },
        {
          "internalType": "string",
          "name": "description",
          "type": "string"
        },
        {
          "internalType": "string",
          "name": "end_time",
          "type": "string"
        },
        {
          "internalType": "uint256",
          "name": "candidate_count",
          "type": "uint256"
        }
      ],
      "payable": false,
      "stateMutability": "view",
      "type": "function"
    },
    {
      "constant": true,
      "inputs": [],
      "name": "name",
      "outputs": [
        {
          "internalType": "string",
          "name": "",
          "type": "string"
        }
      ],
      "payable": false,
      "stateMutability": "view",
      "type": "function"
    },
    {
      "constant": false,
      "inputs": [
        {
          "internalType": "uint256",
          "name": "index",
          "type": "uint256"
        }
      ],
      "name": "getElection",
      "outputs": [
        {
          "internalType": "uint256",
          "name": "",
          "type": "uint256"
        },
        {
          "internalType": "string",
          "name": "",
          "type": "string"
        },
        {
          "internalType": "string",
          "name": "",
          "type": "string"
        },
        {
          "internalType": "string",
          "name": "",
          "type": "string"
        },
        {
          "internalType": "uint256",
          "name": "",
          "type": "uint256"
        }
      ],
      "payable": false,
      "stateMutability": "nonpayable",
      "type": "function"
    },
    {
      "constant": false,
      "inputs": [
        {
          "internalType": "uint256",
          "name": "indexE",
          "type": "uint256"
        },
        {
          "internalType": "uint256",
          "name": "indexC",
          "type": "uint256"
        }
      ],
      "name": "getCandidate",
      "outputs": [
        {
          "internalType": "uint256",
          "name": "",
          "type": "uint256"
        },
        {
          "internalType": "string",
          "name": "",
          "type": "string"
        },
        {
          "internalType": "uint256",
          "name": "",
          "type": "uint256"
        }
      ],
      "payable": false,
      "stateMutability": "nonpayable",
      "type": "function"
    },
    {
      "constant": false,
      "inputs": [
        {
          "internalType": "uint256",
          "name": "electionId",
          "type": "uint256"
        },
        {
          "internalType": "uint256",
          "name": "candidateId",
          "type": "uint256"
        }
      ],
      "name": "vote",
      "outputs": [],
      "payable": false,
      "stateMutability": "nonpayable",
      "type": "function"
    },
    {
      "constant": false,
      "inputs": [
        {
          "internalType": "uint256",
          "name": "electionIndex",
          "type": "uint256"
        }
      ],
      "name": "check_voted",
      "outputs": [
        {
          "internalType": "bool",
          "name": "",
          "type": "bool"
        }
      ],
      "payable": false,
      "stateMutability": "nonpayable",
      "type": "function"
    },
    {
      "constant": false,
      "inputs": [
        {
          "internalType": "string",
          "name": "title",
          "type": "string"
        },
        {
          "internalType": "string",
          "name": "description",
          "type": "string"
        },
        {
          "internalType": "string",
          "name": "end_time",
          "type": "string"
        },
        {
          "internalType": "string[]",
          "name": "candidates",
          "type": "string[]"
        }
      ],
      "name": "create_election",
      "outputs": [],
      "payable": false,
      "stateMutability": "nonpayable",
      "type": "function"
    }
  ],
  "bytecode": "0x6080604052600080556040518060400160405280600981526020017f456c656374696f6e7300000000000000000000000000000000000000000000008152506001908051906020019062000055929190620006ab565b503480156200006357600080fd5b5060038060018154018082558091505090600182039060005260206000200160006040518060400160405280601081526020017f746573742063616e64696461746520610000000000000000000000000000000081525090919091509080519060200190620000d4929190620006ab565b505060038060018154018082558091505090600182039060005260206000200160006040518060400160405280601081526020017f746573742063616e6469646174652062000000000000000000000000000000008152509091909150908051906020019062000146929190620006ab565b505060038060018154018082558091505090600182039060005260206000200160006040518060400160405280601081526020017f746573742063616e64696461746520630000000000000000000000000000000081525090919091509080519060200190620001b8929190620006ab565b5050620003546040518060400160405280601081526020017f44656661756c7420456c656374696f6e000000000000000000000000000000008152506040518060400160405280601381526020017f64656661756c74206465736372697074696f6e000000000000000000000000008152506040518060400160405280600881526020017f32303230313233310000000000000000000000000000000000000000000000008152506003805480602002602001604051908101604052809291908181526020016000905b8282101562000344578382906000526020600020018054600181600116156101000203166002900480601f0160208091040260200160405190810160405280929190818152602001828054600181600116156101000203166002900480156200032f5780601f1062000303576101008083540402835291602001916200032f565b820191906000526020600020905b8154815290600101906020018083116200031157829003601f168201915b50505050508152602001906001019062000282565b505050506200040760201b60201c565b606460026000808152602001908152602001600020600401600080815260200190815260200160002060020160008282540192505081905550603c6002600080815260200190815260200160002060040160006001815260200190815260200160002060020160008282540192505081905550607860026000808152602001908152602001600020600401600060028152602001908152602001600020600201600082825401925050819055506200092f565b60008451116200041657600080fd5b600073ffffffffffffffffffffffffffffffffffffffff163373ffffffffffffffffffffffffffffffffffffffff1614156200045157600080fd5b60005460026000805481526020019081526020016000206000018190555083600260008054815260200190815260200160002060010190805190602001906200049c929190620006ab565b508260026000805481526020019081526020016000206002019080519060200190620004ca929190620006ab565b508160026000805481526020019081526020016000206003019080519060200190620004f8929190620006ab565b5060006002600080548152602001908152602001600020600501819055506000600260008054815260200190815260200160002060000154905060006002600080548152602001908152602001600020905060008090505b8351811015620005f75760405180606001604052808281526020018583815181106200057857fe5b602002602001015181526020016000815250826004016000838152602001908152602001600020600082015181600001556020820151816001019080519060200190620005c792919062000732565b50604082015181600201559050508160050160008154809291906001019190505550808060010191505062000550565b507fb13459a2ae7a704619c2ee3ff0a648e8f20d96b1e6bc52313fb936dd3c3674c0826002600080548152602001908152602001600020600101600260008054815260200190815260200160002060020160026000805481526020019081526020016000206003016002600080548152602001908152602001600020600501546040516200068a9594939291906200088d565b60405180910390a16000808154809291906001019190505550505050505050565b828054600181600116156101000203166002900490600052602060002090601f016020900481019282601f10620006ee57805160ff19168380011785556200071f565b828001600101855582156200071f579182015b828111156200071e57825182559160200191906001019062000701565b5b5090506200072e9190620007b9565b5090565b828054600181600116156101000203166002900490600052602060002090601f016020900481019282601f106200077557805160ff1916838001178555620007a6565b82800160010185558215620007a6579182015b82811115620007a557825182559160200191906001019062000788565b5b509050620007b59190620007b9565b5090565b620007de91905b80821115620007da576000816000905550600101620007c0565b5090565b90565b6000815460018116600081146200080157600181146200082a5762000874565b607f600283041662000814818762000914565b955060ff19831686526020860193505062000874565b600282046200083a818762000914565b95506200084785620008ff565b60005b828110156200086b578154818901526001820191506020810190506200084a565b80880195505050505b505092915050565b620008878162000925565b82525050565b600060a082019050620008a460008301886200087c565b8181036020830152620008b88187620007e1565b90508181036040830152620008ce8186620007e1565b90508181036060830152620008e48185620007e1565b9050620008f560808301846200087c565b9695505050505050565b60008190508160005260206000209050919050565b600082825260208201905092915050565b6000819050919050565b6114b8806200093f6000396000f3fe608060405234801561001057600080fd5b50600436106100885760003560e01c806352fc795c1161005b57806352fc795c146101175780635e6fef01146101475780639d7107771461017b578063b384abef146101af57610088565b806306fdde031461008d5780630732583c146100ab5780633566bc6b146100c95780634bd46448146100e5575b600080fd5b6100956101cb565b6040516100a29190611130565b60405180910390f35b6100b3610269565b6040516100c09190611152565b60405180910390f35b6100e360048036036100de9190810190610ece565b61026f565b005b6100ff60048036036100fa9190810190610fba565b610504565b60405161010e939291906111d5565b60405180910390f35b610131600480360361012c9190810190610f91565b610633565b60405161013e9190611115565b60405180910390f35b610161600480360361015c9190810190610f91565b61069d565b604051610172959493929190611213565b60405180910390f35b61019560048036036101909190810190610f91565b61089b565b6040516101a695949392919061116d565b60405180910390f35b6101c960048036036101c49190810190610fba565b610afb565b005b60018054600181600116156101000203166002900480601f0160208091040260200160405190810160405280929190818152602001828054600181600116156101000203166002900480156102615780601f1061023657610100808354040283529160200191610261565b820191906000526020600020905b81548152906001019060200180831161024457829003601f168201915b505050505081565b60005481565b600084511161027d57600080fd5b600073ffffffffffffffffffffffffffffffffffffffff163373ffffffffffffffffffffffffffffffffffffffff1614156102b757600080fd5b6000546002600080548152602001908152602001600020600001819055508360026000805481526020019081526020016000206001019080519060200190610300929190610c78565b50826002600080548152602001908152602001600020600201908051906020019061032c929190610c78565b508160026000805481526020019081526020016000206003019080519060200190610358929190610c78565b5060006002600080548152602001908152602001600020600501819055506000600260008054815260200190815260200160002060000154905060006002600080548152602001908152602001600020905060008090505b83518110156104525760405180606001604052808281526020018583815181106103d657fe5b602002602001015181526020016000815250826004016000838152602001908152602001600020600082015181600001556020820151816001019080519060200190610423929190610cf8565b5060408201518160020155905050816005016000815480929190600101919050555080806001019150506103b0565b507fb13459a2ae7a704619c2ee3ff0a648e8f20d96b1e6bc52313fb936dd3c3674c0826002600080548152602001908152602001600020600101600260008054815260200190815260200160002060020160026000805481526020019081526020016000206003016002600080548152602001908152602001600020600501546040516104e395949392919061127b565b60405180910390a16000808154809291906001019190505550505050505050565b6000606060006002600086815260200190815260200160002060040160008581526020019081526020016000206000015460026000878152602001908152602001600020600401600086815260200190815260200160002060010160026000888152602001908152602001600020600401600087815260200190815260200160002060020154818054600181600116156101000203166002900480601f01602080910402602001604051908101604052809291908181526020018280546001816001161561010002031660029004801561061f5780601f106105f45761010080835404028352916020019161061f565b820191906000526020600020905b81548152906001019060200180831161060257829003601f168201915b505050505091509250925092509250925092565b60006002600083815260200190815260200160002060060160003373ffffffffffffffffffffffffffffffffffffffff1673ffffffffffffffffffffffffffffffffffffffff16815260200190815260200160002060009054906101000a900460ff169050919050565b6002602052806000526040600020600091509050806000015490806001018054600181600116156101000203166002900480601f01602080910402602001604051908101604052809291908181526020018280546001816001161561010002031660029004801561074f5780601f106107245761010080835404028352916020019161074f565b820191906000526020600020905b81548152906001019060200180831161073257829003601f168201915b505050505090806002018054600181600116156101000203166002900480601f0160208091040260200160405190810160405280929190818152602001828054600181600116156101000203166002900480156107ed5780601f106107c2576101008083540402835291602001916107ed565b820191906000526020600020905b8154815290600101906020018083116107d057829003601f168201915b505050505090806003018054600181600116156101000203166002900480601f01602080910402602001604051908101604052809291908181526020018280546001816001161561010002031660029004801561088b5780601f106108605761010080835404028352916020019161088b565b820191906000526020600020905b81548152906001019060200180831161086e57829003601f168201915b5050505050908060050154905085565b60006060806060600060026000878152602001908152602001600020600001546002600088815260200190815260200160002060010160026000898152602001908152602001600020600201600260008a8152602001908152602001600020600301600260008b815260200190815260200160002060050154838054600181600116156101000203166002900480601f0160208091040260200160405190810160405280929190818152602001828054600181600116156101000203166002900480156109a95780601f1061097e576101008083540402835291602001916109a9565b820191906000526020600020905b81548152906001019060200180831161098c57829003601f168201915b50505050509350828054600181600116156101000203166002900480601f016020809104026020016040519081016040528092919081815260200182805460018160011615610100020316600290048015610a455780601f10610a1a57610100808354040283529160200191610a45565b820191906000526020600020905b815481529060010190602001808311610a2857829003601f168201915b50505050509250818054600181600116156101000203166002900480601f016020809104026020016040519081016040528092919081815260200182805460018160011615610100020316600290048015610ae15780601f10610ab657610100808354040283529160200191610ae1565b820191906000526020600020905b815481529060010190602001808311610ac457829003601f168201915b505050505091509450945094509450945091939590929450565b6002600083815260200190815260200160002060060160003373ffffffffffffffffffffffffffffffffffffffff1673ffffffffffffffffffffffffffffffffffffffff16815260200190815260200160002060009054906101000a900460ff1615610b6657600080fd5b600081118015610b8c575060026000838152602001908152602001600020600501548111155b610b9557600080fd5b6002600083815260200190815260200160002060040160008281526020019081526020016000206002016000815480929190600101919050555060016002600084815260200190815260200160002060060160003373ffffffffffffffffffffffffffffffffffffffff1673ffffffffffffffffffffffffffffffffffffffff16815260200190815260200160002060006101000a81548160ff0219169083151502179055507fac631cf963e26ff421b915fc32e8d8c6b1898317dfa37a2f94e77adf3f6b8b0d8282604051610c6c9291906112e3565b60405180910390a15050565b828054600181600116156101000203166002900490600052602060002090601f016020900481019282601f10610cb957805160ff1916838001178555610ce7565b82800160010185558215610ce7579182015b82811115610ce6578251825591602001919060010190610ccb565b5b509050610cf49190610d78565b5090565b828054600181600116156101000203166002900490600052602060002090601f016020900481019282601f10610d3957805160ff1916838001178555610d67565b82800160010185558215610d67579182015b82811115610d66578251825591602001919060010190610d4b565b5b509050610d749190610d78565b5090565b610d9a91905b80821115610d96576000816000905550600101610d7e565b5090565b90565b600082601f830112610dae57600080fd5b8135610dc1610dbc82611339565b61130c565b9150818183526020840193506020810190508360005b83811015610e075781358601610ded8882610e11565b845260208401935060208301925050600181019050610dd7565b5050505092915050565b600082601f830112610e2257600080fd5b8135610e35610e3082611361565b61130c565b91508082526020830160208301858383011115610e5157600080fd5b610e5c83828461140b565b50505092915050565b600082601f830112610e7657600080fd5b8135610e89610e848261138d565b61130c565b91508082526020830160208301858383011115610ea557600080fd5b610eb083828461140b565b50505092915050565b600081359050610ec88161145e565b92915050565b60008060008060808587031215610ee457600080fd5b600085013567ffffffffffffffff811115610efe57600080fd5b610f0a87828801610e65565b945050602085013567ffffffffffffffff811115610f2757600080fd5b610f3387828801610e65565b935050604085013567ffffffffffffffff811115610f5057600080fd5b610f5c87828801610e65565b925050606085013567ffffffffffffffff811115610f7957600080fd5b610f8587828801610d9d565b91505092959194509250565b600060208284031215610fa357600080fd5b6000610fb184828501610eb9565b91505092915050565b60008060408385031215610fcd57600080fd5b6000610fdb85828601610eb9565b9250506020610fec85828601610eb9565b9150509250929050565b610fff816113f5565b82525050565b6000611010826113d9565b61101a81856113e4565b935061102a81856020860161141a565b6110338161144d565b840191505092915050565b6000611049826113ce565b61105381856113e4565b935061106381856020860161141a565b61106c8161144d565b840191505092915050565b60008154600181166000811461109457600181146110ba576110fe565b607f60028304166110a581876113e4565b955060ff1983168652602086019350506110fe565b600282046110c881876113e4565b95506110d3856113b9565b60005b828110156110f5578154818901526001820191506020810190506110d6565b80880195505050505b505092915050565b61110f81611401565b82525050565b600060208201905061112a6000830184610ff6565b92915050565b6000602082019050818103600083015261114a818461103e565b905092915050565b60006020820190506111676000830184611106565b92915050565b600060a0820190506111826000830188611106565b81810360208301526111948187611005565b905081810360408301526111a88186611005565b905081810360608301526111bc8185611005565b90506111cb6080830184611106565b9695505050505050565b60006060820190506111ea6000830186611106565b81810360208301526111fc8185611005565b905061120b6040830184611106565b949350505050565b600060a0820190506112286000830188611106565b818103602083015261123a818761103e565b9050818103604083015261124e818661103e565b90508181036060830152611262818561103e565b90506112716080830184611106565b9695505050505050565b600060a0820190506112906000830188611106565b81810360208301526112a28187611077565b905081810360408301526112b68186611077565b905081810360608301526112ca8185611077565b90506112d96080830184611106565b9695505050505050565b60006040820190506112f86000830185611106565b6113056020830184611106565b9392505050565b6000604051905081810181811067ffffffffffffffff8211171561132f57600080fd5b8060405250919050565b600067ffffffffffffffff82111561135057600080fd5b602082029050602081019050919050565b600067ffffffffffffffff82111561137857600080fd5b601f19601f8301169050602081019050919050565b600067ffffffffffffffff8211156113a457600080fd5b601f19601f8301169050602081019050919050565b60008190508160005260206000209050919050565b600081519050919050565b600081519050919050565b600082825260208201905092915050565b60008115159050919050565b6000819050919050565b82818337600083830152505050565b60005b8381101561143857808201518184015260208101905061141d565b83811115611447576000848401525b50505050565b6000601f19601f8301169050919050565b61146781611401565b811461147257600080fd5b5056fea365627a7a723158203a8059039aa9cc230b3f2706017f6bb3cdf4369f33b2f8ef2d132b6dce7ee3006c6578706572696d656e74616cf564736f6c63430005100040",
  "source": "pragma experimental ABIEncoderV2;\r\n\r\ncontract Elections {\r\n\r\n    uint public election_count = 0;\r\n    string public name = \"Elections\";\r\n    mapping(uint => Election) public elections;\r\n    string[] defaultArray;\r\n    \r\n\r\n    struct Election {\r\n        uint id;\r\n        string title;\r\n        string description;\r\n        string end_time;\r\n        mapping(uint => Candidate) candidates;\r\n        uint candidate_count;\r\n         // Store accounts that have voted\r\n        mapping(address => bool) voters;\r\n    }\r\n\r\n    // Model a Candidate\r\n    struct Candidate {\r\n        uint id;\r\n        string name;\r\n        uint vote_count;\r\n    } \r\n\r\n    constructor () public {\r\n        defaultArray.push(\"test candidate a\");\r\n        defaultArray.push(\"test candidate b\");\r\n        defaultArray.push(\"test candidate c\");\r\n        create_election(\"Default Election\", \"default description\", \r\n        \"20201231\", defaultArray);\r\n        elections[0].candidates[0].vote_count += 100;\r\n        elections[0].candidates[1].vote_count += 60;\r\n        elections[0].candidates[2].vote_count += 120;\r\n    }\r\n\r\n    function getElection(uint index) public returns (uint, string memory, string memory, string memory, uint) {\r\n        return (elections[index].id, elections[index].title, elections[index].description, elections[index].end_time, elections[index].candidate_count);\r\n    }\r\n\r\n    function getCandidate(uint indexE, uint indexC) public returns (uint, string memory, uint) {\r\n        return (elections[indexE].candidates[indexC].id, elections[indexE].candidates[indexC].name, elections[indexE].candidates[indexC].vote_count);\r\n    }\r\n\r\n    function vote(uint electionId, uint candidateId) public {\r\n        require(!elections[electionId].voters[msg.sender]);\r\n        require(candidateId > 0 && candidateId <= elections[electionId].candidate_count);\r\n        elections[electionId].candidates[candidateId].vote_count ++;\r\n        elections[electionId].voters[msg.sender] = true;\r\n        emit VotedEvent(electionId, candidateId);\r\n    }\r\n\r\n    function check_voted(uint electionIndex) public returns (bool){\r\n        return elections[electionIndex].voters[msg.sender];\r\n    }\r\n\r\n    event VotedEvent(\r\n        uint electionId,\r\n        uint candidateId\r\n    );\r\n\r\n    event ElectionCreated (\r\n        uint id,\r\n        string election_title,\r\n        string description,\r\n        string end_time,\r\n        uint candidate_count\r\n    );\r\n\r\n    function create_election(string memory title, string memory description, \r\n        string memory end_time, string[] memory candidates) public {\r\n            // Make sure election title exists\r\n            require(bytes(title).length > 0);\r\n            // Make sure creater address exists\r\n            require(msg.sender!=address(0));\r\n\r\n            // Add election to the contract\r\n            elections[election_count].id = election_count;\r\n            elections[election_count].title = title;\r\n            elections[election_count].description = description;\r\n            elections[election_count].end_time = end_time;\r\n            elections[election_count].candidate_count = 0;\r\n\r\n            uint _id = elections[election_count].id;\r\n\r\n            Election storage election = elections[election_count];\r\n\r\n            for (uint i=0; i<candidates.length; i++){\r\n                election.candidates[i] = Candidate(i, candidates[i], 0);\r\n                election.candidate_count++;\r\n            }\r\n\r\n            // Trigger an event\r\n            emit ElectionCreated(_id, elections[election_count].title, \r\n                elections[election_count].description, elections[election_count].end_time,\r\n                elections[election_count].candidate_count);\r\n\r\n            // Increment election id\r\n            election_count ++;\r\n\r\n    }\r\n}",
  "sourcePath": "C:/Users/Jacky/Desktop/election/src/contracts/Elections.sol",
  "compiler": {
    "name": "solc",
    "version": "0.5.16+commit.9c3226ce.Emscripten.clang"
  },
  "schemaVersion": "3.3.3",
  "updatedAt": "2020-12-28T08:42:23.552Z",
  "networkType": "ethereum",
  "devdoc": {
    "methods": {}
  },
  "userdoc": {
    "methods": {}
  }
}