{
  "contractName": "Elections",
  "abi": [
    {
      "anonymous": false,
      "inputs": [
        {
          "indexed": false,
          "internalType": "uint256",
          "name": "id",
          "type": "uint256"
        },
        {
          "indexed": false,
          "internalType": "string",
          "name": "election_title",
          "type": "string"
        },
        {
          "indexed": false,
          "internalType": "string",
          "name": "description",
          "type": "string"
        },
        {
          "indexed": false,
          "internalType": "string",
          "name": "end_time",
          "type": "string"
        },
        {
          "indexed": false,
          "internalType": "uint256",
          "name": "candidate_count",
          "type": "uint256"
        }
      ],
      "name": "ElectionCreated",
      "type": "event"
    },
    {
      "constant": true,
      "inputs": [],
      "name": "election_count",
      "outputs": [
        {
          "internalType": "uint256",
          "name": "",
          "type": "uint256"
        }
      ],
      "payable": false,
      "stateMutability": "view",
      "type": "function"
    },
    {
      "constant": true,
      "inputs": [
        {
          "internalType": "uint256",
          "name": "",
          "type": "uint256"
        }
      ],
      "name": "elections",
      "outputs": [
        {
          "internalType": "uint256",
          "name": "id",
          "type": "uint256"
        },
        {
          "internalType": "string",
          "name": "title",
          "type": "string"
        },
        {
          "internalType": "string",
          "name": "description",
          "type": "string"
        },
        {
          "internalType": "string",
          "name": "end_time",
          "type": "string"
        },
        {
          "internalType": "uint256",
          "name": "candidate_count",
          "type": "uint256"
        }
      ],
      "payable": false,
      "stateMutability": "view",
      "type": "function"
    },
    {
      "constant": true,
      "inputs": [],
      "name": "name",
      "outputs": [
        {
          "internalType": "string",
          "name": "",
          "type": "string"
        }
      ],
      "payable": false,
      "stateMutability": "view",
      "type": "function"
    },
    {
      "constant": false,
      "inputs": [
        {
          "internalType": "string",
          "name": "title",
          "type": "string"
        },
        {
          "internalType": "string",
          "name": "description",
          "type": "string"
        },
        {
          "internalType": "string",
          "name": "end_time",
          "type": "string"
        },
        {
          "internalType": "bytes32[]",
          "name": "candidates",
          "type": "bytes32[]"
        }
      ],
      "name": "create_election",
      "outputs": [],
      "payable": false,
      "stateMutability": "nonpayable",
      "type": "function"
    }
  ],
  "bytecode": "0x6080604052600080556040518060400160405280600981526020017f456c656374696f6e73000000000000000000000000000000000000000000000081525060019080519060200190610053929190610066565b5034801561006057600080fd5b5061010b565b828054600181600116156101000203166002900490600052602060002090601f016020900481019282601f106100a757805160ff19168380011785556100d5565b828001600101855582156100d5579182015b828111156100d45782518255916020019190600101906100b9565b5b5090506100e291906100e6565b5090565b61010891905b808211156101045760008160009055506001016100ec565b5090565b90565b610c988061011a6000396000f3fe608060405234801561001057600080fd5b506004361061004c5760003560e01c806306fdde03146100515780630732583c146100d45780635e6fef01146100f2578063bc3b0a491461027f575b600080fd5b6100596104fc565b6040518080602001828103825283818151815260200191508051906020019080838360005b8381101561009957808201518184015260208101905061007e565b50505050905090810190601f1680156100c65780820380516001836020036101000a031916815260200191505b509250505060405180910390f35b6100dc61059a565b6040518082815260200191505060405180910390f35b61011e6004803603602081101561010857600080fd5b81019080803590602001909291905050506105a0565b60405180868152602001806020018060200180602001858152602001848103845288818151815260200191508051906020019080838360005b83811015610172578082015181840152602081019050610157565b50505050905090810190601f16801561019f5780820380516001836020036101000a031916815260200191505b50848103835287818151815260200191508051906020019080838360005b838110156101d85780820151818401526020810190506101bd565b50505050905090810190601f1680156102055780820380516001836020036101000a031916815260200191505b50848103825286818151815260200191508051906020019080838360005b8381101561023e578082015181840152602081019050610223565b50505050905090810190601f16801561026b5780820380516001836020036101000a031916815260200191505b509850505050505050505060405180910390f35b6104fa6004803603608081101561029557600080fd5b81019080803590602001906401000000008111156102b257600080fd5b8201836020820111156102c457600080fd5b803590602001918460018302840111640100000000831117156102e657600080fd5b91908080601f016020809104026020016040519081016040528093929190818152602001838380828437600081840152601f19601f8201169050808301925050505050505091929192908035906020019064010000000081111561034957600080fd5b82018360208201111561035b57600080fd5b8035906020019184600183028401116401000000008311171561037d57600080fd5b91908080601f016020809104026020016040519081016040528093929190818152602001838380828437600081840152601f19601f820116905080830192505050505050509192919290803590602001906401000000008111156103e057600080fd5b8201836020820111156103f257600080fd5b8035906020019184600183028401116401000000008311171561041457600080fd5b91908080601f016020809104026020016040519081016040528093929190818152602001838380828437600081840152601f19601f8201169050808301925050505050505091929192908035906020019064010000000081111561047757600080fd5b82018360208201111561048957600080fd5b803590602001918460208302840111640100000000831117156104ab57600080fd5b919080806020026020016040519081016040528093929190818152602001838360200280828437600081840152601f19601f82011690508083019250505050505050919291929050505061079e565b005b60018054600181600116156101000203166002900480601f0160208091040260200160405190810160405280929190818152602001828054600181600116156101000203166002900480156105925780601f1061056757610100808354040283529160200191610592565b820191906000526020600020905b81548152906001019060200180831161057557829003601f168201915b505050505081565b60005481565b6002602052806000526040600020600091509050806000015490806001018054600181600116156101000203166002900480601f0160208091040260200160405190810160405280929190818152602001828054600181600116156101000203166002900480156106525780601f1061062757610100808354040283529160200191610652565b820191906000526020600020905b81548152906001019060200180831161063557829003601f168201915b505050505090806002018054600181600116156101000203166002900480601f0160208091040260200160405190810160405280929190818152602001828054600181600116156101000203166002900480156106f05780601f106106c5576101008083540402835291602001916106f0565b820191906000526020600020905b8154815290600101906020018083116106d357829003601f168201915b505050505090806003018054600181600116156101000203166002900480601f01602080910402602001604051908101604052809291908181526020018280546001816001161561010002031660029004801561078e5780601f106107635761010080835404028352916020019161078e565b820191906000526020600020905b81548152906001019060200180831161077157829003601f168201915b5050505050908060050154905085565b60008451116107ac57600080fd5b600073ffffffffffffffffffffffffffffffffffffffff163373ffffffffffffffffffffffffffffffffffffffff1614156107e657600080fd5b600054600260008054815260200190815260200160002060000181905550836002600080548152602001908152602001600020600101908051906020019061082f929190610bbe565b50826002600080548152602001908152602001600020600201908051906020019061085b929190610bbe565b508160026000805481526020019081526020016000206003019080519060200190610887929190610bbe565b5060006002600080548152602001908152602001600020600501819055506000600260008054815260200190815260200160002060000154905060006002600080548152602001908152602001600020905060008090505b835181101561096e57604051806060016040528082815260200185838151811061090557fe5b602002602001015181526020016000815250826004016000838152602001908152602001600020600082015181600001556020820151816001015560408201518160020155905050816005016000815480929190600101919050555080806001019150506108df565b507fb13459a2ae7a704619c2ee3ff0a648e8f20d96b1e6bc52313fb936dd3c3674c08260026000805481526020019081526020016000206001016002600080548152602001908152602001600020600201600260008054815260200190815260200160002060030160026000805481526020019081526020016000206005015460405180868152602001806020018060200180602001858152602001848103845288818154600181600116156101000203166002900481526020019150805460018160011615610100020316600290048015610a8b5780601f10610a6057610100808354040283529160200191610a8b565b820191906000526020600020905b815481529060010190602001808311610a6e57829003601f168201915b5050848103835287818154600181600116156101000203166002900481526020019150805460018160011615610100020316600290048015610b0e5780601f10610ae357610100808354040283529160200191610b0e565b820191906000526020600020905b815481529060010190602001808311610af157829003601f168201915b5050848103825286818154600181600116156101000203166002900481526020019150805460018160011615610100020316600290048015610b915780601f10610b6657610100808354040283529160200191610b91565b820191906000526020600020905b815481529060010190602001808311610b7457829003601f168201915b50509850505050505050505060405180910390a16000808154809291906001019190505550505050505050565b828054600181600116156101000203166002900490600052602060002090601f016020900481019282601f10610bff57805160ff1916838001178555610c2d565b82800160010185558215610c2d579182015b82811115610c2c578251825591602001919060010190610c11565b5b509050610c3a9190610c3e565b5090565b610c6091905b80821115610c5c576000816000905550600101610c44565b5090565b9056fea265627a7a723158206efc3ff8892e08cd287fed577f31124742abada39de96e636ded1d0a8d9e370164736f6c63430005100032",
  "source": "pragma solidity 0.5.16;\r\n\r\ncontract Elections {\r\n\r\n    uint public election_count = 0;\r\n    string public name = \"Elections\";\r\n    mapping(uint => Election) public elections;\r\n\r\n    struct Election {\r\n        uint id;\r\n        string title;\r\n        string description;\r\n        string end_time;\r\n        mapping(uint => Candidate) candidates;\r\n        uint candidate_count;\r\n         // Store accounts that have voted\r\n        mapping(address => bool) voters;\r\n    }\r\n\r\n    // Model a Candidate\r\n    struct Candidate {\r\n        uint id;\r\n        bytes32 name;\r\n        uint vote_count;\r\n    }\r\n\r\n    event ElectionCreated (\r\n        uint id,\r\n        string election_title,\r\n        string description,\r\n        string end_time,\r\n        uint candidate_count\r\n    );\r\n\r\n    function create_election(string memory title, string memory description, \r\n        string memory end_time, bytes32[] memory candidates) public {\r\n            // Make sure election title exists\r\n            require(bytes(title).length > 0);\r\n            // Make sure creater address exists\r\n            require(msg.sender!=address(0));\r\n\r\n            // Add election to the contract\r\n            elections[election_count].id = election_count;\r\n            elections[election_count].title = title;\r\n            elections[election_count].description = description;\r\n            elections[election_count].end_time = end_time;\r\n            elections[election_count].candidate_count = 0;\r\n\r\n            uint _id = elections[election_count].id;\r\n\r\n            Election storage election = elections[election_count];\r\n\r\n            for (uint i=0; i<candidates.length; i++){\r\n                election.candidates[i] = Candidate(i, candidates[i], 0);\r\n                election.candidate_count++;\r\n            }\r\n\r\n            // Trigger an event\r\n            emit ElectionCreated(_id, elections[election_count].title, \r\n                elections[election_count].description, elections[election_count].end_time,\r\n                elections[election_count].candidate_count);\r\n\r\n            // Increment election id\r\n            election_count ++;\r\n\r\n    }\r\n\r\n    // // voted event\r\n    // event VotedEvent (\r\n    //     uint indexed _candidateId\r\n    // );\r\n\r\n\r\n    // function vote (uint _candidateId) public {\r\n    //     // require that they haven't voted before\r\n    //     require(!voters[msg.sender]);\r\n\r\n    //     // require a valid candidate\r\n    //     require(_candidateId > 0 && _candidateId <= candidatesCount);\r\n\r\n    //     // record that voter has voted\r\n    //     voters[msg.sender] = true;\r\n\r\n    //     // update candidate vote Count\r\n    //     candidates[_candidateId].voteCount ++;\r\n\r\n    //     // trigger voted event\r\n    //     emit VotedEvent(_candidateId);\r\n    // }\r\n\r\n}",
  "sourcePath": "C:/Users/Jacky/Desktop/Election/src/contracts/Elections.sol",
  "compiler": {
    "name": "solc",
    "version": "0.5.16+commit.9c3226ce.Emscripten.clang"
  },
  "schemaVersion": "3.0.22",
  "updatedAt": "2020-12-27T16:56:16.599Z",
  "networkType": "ethereum",
  "devdoc": {
    "methods": {}
  },
  "userdoc": {
    "methods": {}
  }
}